{
  "contractName": "Voting",
  "abi": [
    {
      "inputs": [
        {
          "internalType": "uint256",
          "name": "startTime_",
          "type": "uint256"
        },
        {
          "internalType": "uint256",
          "name": "endTime_",
          "type": "uint256"
        }
      ],
      "stateMutability": "nonpayable",
      "type": "constructor"
    },
    {
      "inputs": [
        {
          "internalType": "uint256",
          "name": "",
          "type": "uint256"
        }
      ],
      "name": "candidates",
      "outputs": [
        {
          "internalType": "string",
          "name": "name",
          "type": "string"
        },
        {
          "internalType": "string",
          "name": "partyShortcut",
          "type": "string"
        },
        {
          "internalType": "uint256",
          "name": "nominationNumber",
          "type": "uint256"
        },
        {
          "internalType": "uint8",
          "name": "stateCode",
          "type": "uint8"
        },
        {
          "internalType": "uint8",
          "name": "constituencyCode",
          "type": "uint8"
        }
      ],
      "stateMutability": "view",
      "type": "function"
    },
    {
      "inputs": [
        {
          "internalType": "uint256",
          "name": "voterAadharNumber",
          "type": "uint256"
        }
      ],
      "name": "getCandidateList",
      "outputs": [
        {
          "components": [
            {
              "internalType": "string",
              "name": "name",
              "type": "string"
            },
            {
              "internalType": "string",
              "name": "partyShortcut",
              "type": "string"
            },
            {
              "internalType": "uint256",
              "name": "nominationNumber",
              "type": "uint256"
            },
            {
              "internalType": "uint8",
              "name": "stateCode",
              "type": "uint8"
            },
            {
              "internalType": "uint8",
              "name": "constituencyCode",
              "type": "uint8"
            }
          ],
          "internalType": "struct Types.Candidate[]",
          "name": "",
          "type": "tuple[]"
        }
      ],
      "stateMutability": "view",
      "type": "function"
    },
    {
      "inputs": [
        {
          "internalType": "uint256",
          "name": "voterAadharNumber",
          "type": "uint256"
        }
      ],
      "name": "isVoterEligible",
      "outputs": [
        {
          "internalType": "bool",
          "name": "voterEligible_",
          "type": "bool"
        }
      ],
      "stateMutability": "view",
      "type": "function"
    },
    {
      "inputs": [
        {
          "internalType": "uint256",
          "name": "voterAadharNumber",
          "type": "uint256"
        }
      ],
      "name": "didCurrentVoterVoted",
      "outputs": [
        {
          "internalType": "bool",
          "name": "userVoted_",
          "type": "bool"
        },
        {
          "components": [
            {
              "internalType": "string",
              "name": "name",
              "type": "string"
            },
            {
              "internalType": "string",
              "name": "partyShortcut",
              "type": "string"
            },
            {
              "internalType": "uint256",
              "name": "nominationNumber",
              "type": "uint256"
            },
            {
              "internalType": "uint8",
              "name": "stateCode",
              "type": "uint8"
            },
            {
              "internalType": "uint8",
              "name": "constituencyCode",
              "type": "uint8"
            }
          ],
          "internalType": "struct Types.Candidate",
          "name": "candidate_",
          "type": "tuple"
        }
      ],
      "stateMutability": "view",
      "type": "function"
    },
    {
      "inputs": [
        {
          "internalType": "uint256",
          "name": "nominationNumber",
          "type": "uint256"
        },
        {
          "internalType": "uint256",
          "name": "voterAadharNumber",
          "type": "uint256"
        },
        {
          "internalType": "uint256",
          "name": "currentTime_",
          "type": "uint256"
        }
      ],
      "name": "vote",
      "outputs": [],
      "stateMutability": "nonpayable",
      "type": "function"
    },
    {
      "inputs": [],
      "name": "getVotingEndTime",
      "outputs": [
        {
          "internalType": "uint256",
          "name": "endTime_",
          "type": "uint256"
        }
      ],
      "stateMutability": "view",
      "type": "function"
    },
    {
      "inputs": [
        {
          "internalType": "uint256",
          "name": "startTime_",
          "type": "uint256"
        },
        {
          "internalType": "uint256",
          "name": "currentTime_",
          "type": "uint256"
        }
      ],
      "name": "updateVotingStartTime",
      "outputs": [],
      "stateMutability": "nonpayable",
      "type": "function"
    },
    {
      "inputs": [
        {
          "internalType": "uint256",
          "name": "endTime_",
          "type": "uint256"
        },
        {
          "internalType": "uint256",
          "name": "currentTime_",
          "type": "uint256"
        }
      ],
      "name": "extendVotingTime",
      "outputs": [],
      "stateMutability": "nonpayable",
      "type": "function"
    },
    {
      "inputs": [
        {
          "internalType": "uint256",
          "name": "currentTime_",
          "type": "uint256"
        }
      ],
      "name": "getResults",
      "outputs": [
        {
          "components": [
            {
              "internalType": "string",
              "name": "name",
              "type": "string"
            },
            {
              "internalType": "string",
              "name": "partyShortcut",
              "type": "string"
            },
            {
              "internalType": "uint256",
              "name": "voteCount",
              "type": "uint256"
            },
            {
              "internalType": "uint256",
              "name": "nominationNumber",
              "type": "uint256"
            },
            {
              "internalType": "uint8",
              "name": "stateCode",
              "type": "uint8"
            },
            {
              "internalType": "uint8",
              "name": "constituencyCode",
              "type": "uint8"
            }
          ],
          "internalType": "struct Types.Results[]",
          "name": "",
          "type": "tuple[]"
        }
      ],
      "stateMutability": "view",
      "type": "function"
    }
  ],
  "bytecode": "0x60806040523480156200001157600080fd5b506040516200274138038062002741833981810160405281019062000037919062000959565b62000047620000ae60201b60201c565b620000576200050d60201b60201c565b816005819055508060068190555033600460006101000a81548173ffffffffffffffffffffffffffffffffffffffff021916908373ffffffffffffffffffffffffffffffffffffffff160217905550505062000da2565b6000600367ffffffffffffffff811115620000ce57620000cd620009a0565b5b6040519080825280602002602001820160405280156200010b57816020015b620000f7620008e4565b815260200190600190039081620000ed5790505b5090506040518060a001604052806040518060400160405280601a81526020017f54686520426861726174697961204a616e61746120506172747900000000000081525081526020016040518060400160405280600381526020017f424a500000000000000000000000000000000000000000000000000000000000815250815260200164a96106e5a68152602001600a60ff168152602001600160ff1681525081600081518110620001c357620001c2620009cf565b5b60200260200101819052506040518060a001604052806040518060400160405280600881526020017f436f6e677265737300000000000000000000000000000000000000000000000081525081526020016040518060400160405280600481526020017f436f6e6700000000000000000000000000000000000000000000000000000000815250815260200164c27e5da76e8152602001600a60ff168152602001600160ff1681525081600181518110620002835762000282620009cf565b5b60200260200101819052506040518060a001604052806040518060400160405280601381526020017f5468652041616d204161646d692050617274790000000000000000000000000081525081526020016040518060400160405280600381526020017f4141500000000000000000000000000000000000000000000000000000000000815250815260200164e19f3e55b78152602001600a60ff168152602001600260ff1681525081600281518110620003435762000342620009cf565b5b602002602001018190525060005b81518110156200050957818181518110620003715762000370620009cf565b5b602002602001015160026000848481518110620003935762000392620009cf565b5b60200260200101516040015181526020019081526020016000206000820151816000019081620003c4919062000c3f565b506020820151816001019081620003dc919062000c3f565b506040820151816002015560608201518160030160006101000a81548160ff021916908360ff16021790555060808201518160030160016101000a81548160ff021916908360ff1602179055509050506000828281518110620004445762000443620009cf565b5b6020026020010151908060018154018082558091505060019003906000526020600020906004020160009091909190915060008201518160000190816200048c919062000c3f565b506020820151816001019081620004a4919062000c3f565b506040820151816002015560608201518160030160006101000a81548160ff021916908360ff16021790555060808201518160030160016101000a81548160ff021916908360ff16021790555050508080620005009062000d55565b91505062000351565b5050565b6040518060e00160405280646f21924edd81526020016040518060400160405280600a81526020017f41726e6176204a61696e000000000000000000000000000000000000000000008152508152602001601560ff168152602001600a60ff168152602001600160ff168152602001600115158152602001600081525060016000646f21924edd8152602001908152602001600020600082015181600001556020820151816001019081620005c3919062000c3f565b5060408201518160020160006101000a81548160ff021916908360ff16021790555060608201518160020160016101000a81548160ff021916908360ff16021790555060808201518160020160026101000a81548160ff021916908360ff16021790555060a08201518160020160036101000a81548160ff02191690831515021790555060c082015181600301559050506040518060e0016040528064b22a5f8bfe81526020016040518060400160405280600d81526020017f4c75766a6565742053696e6768000000000000000000000000000000000000008152508152602001602560ff168152602001600a60ff168152602001600160ff16815260200160001515815260200160008152506001600064b22a5f8bfe81526020019081526020016000206000820151816000015560208201518160010190816200070a919062000c3f565b5060408201518160020160006101000a81548160ff021916908360ff16021790555060608201518160020160016101000a81548160ff021916908360ff16021790555060808201518160020160026101000a81548160ff021916908360ff16021790555060a08201518160020160036101000a81548160ff02191690831515021790555060c082015181600301559050506040518060e0016040528064d47e92894681526020016040518060400160405280600c81526020017f50726f62616c204d616c696b00000000000000000000000000000000000000008152508152602001601a60ff168152602001600a60ff168152602001600160ff16815260200160011515815260200160008152506001600064d47e928946815260200190815260200160002060008201518160000155602082015181600101908162000851919062000c3f565b5060408201518160020160006101000a81548160ff021916908360ff16021790555060608201518160020160016101000a81548160ff021916908360ff16021790555060808201518160020160026101000a81548160ff021916908360ff16021790555060a08201518160020160036101000a81548160ff02191690831515021790555060c08201518160030155905050565b6040518060a00160405280606081526020016060815260200160008152602001600060ff168152602001600060ff1681525090565b600080fd5b6000819050919050565b62000933816200091e565b81146200093f57600080fd5b50565b600081519050620009538162000928565b92915050565b6000806040838503121562000973576200097262000919565b5b6000620009838582860162000942565b9250506020620009968582860162000942565b9150509250929050565b7f4e487b7100000000000000000000000000000000000000000000000000000000600052604160045260246000fd5b7f4e487b7100000000000000000000000000000000000000000000000000000000600052603260045260246000fd5b600081519050919050565b7f4e487b7100000000000000000000000000000000000000000000000000000000600052602260045260246000fd5b6000600282049050600182168062000a5157607f821691505b60208210810362000a675762000a6662000a09565b5b50919050565b60008190508160005260206000209050919050565b60006020601f8301049050919050565b600082821b905092915050565b60006008830262000ad17fffffffffffffffffffffffffffffffffffffffffffffffffffffffffffffffff8262000a92565b62000add868362000a92565b95508019841693508086168417925050509392505050565b6000819050919050565b600062000b2062000b1a62000b14846200091e565b62000af5565b6200091e565b9050919050565b6000819050919050565b62000b3c8362000aff565b62000b5462000b4b8262000b27565b84845462000a9f565b825550505050565b600090565b62000b6b62000b5c565b62000b7881848462000b31565b505050565b5b8181101562000ba05762000b9460008262000b61565b60018101905062000b7e565b5050565b601f82111562000bef5762000bb98162000a6d565b62000bc48462000a82565b8101602085101562000bd4578190505b62000bec62000be38562000a82565b83018262000b7d565b50505b505050565b600082821c905092915050565b600062000c146000198460080262000bf4565b1980831691505092915050565b600062000c2f838362000c01565b9150826002028217905092915050565b62000c4a82620009fe565b67ffffffffffffffff81111562000c665762000c65620009a0565b5b62000c72825462000a38565b62000c7f82828562000ba4565b600060209050601f83116001811462000cb7576000841562000ca2578287015190505b62000cae858262000c21565b86555062000d1e565b601f19841662000cc78662000a6d565b60005b8281101562000cf15784890151825560018201915060208501945060208101905062000cca565b8683101562000d11578489015162000d0d601f89168262000c01565b8355505b6001600288020188555050505b505050505050565b7f4e487b7100000000000000000000000000000000000000000000000000000000600052601160045260246000fd5b600062000d62826200091e565b91507fffffffffffffffffffffffffffffffffffffffffffffffffffffffffffffffff820362000d975762000d9662000d26565b5b600182019050919050565b61198f8062000db26000396000f3fe608060405234801561001057600080fd5b50600436106100935760003560e01c806381a60c0d1161006657806381a60c0d146101495780638a6655d614610179578063b1bf87b014610195578063b9d84552146101b3578063dce8d8a3146101cf57610093565b80633477ee2e146100985780635d816e22146100cc5780635e23c37c146100e8578063618bde0a14610119575b600080fd5b6100b260048036038101906100ad91906111d9565b6101ff565b6040516100c39594939291906112c1565b60405180910390f35b6100e660048036038101906100e19190611322565b61036f565b005b61010260048036038101906100fd91906111d9565b6103f0565b604051610110929190611462565b60405180910390f35b610133600480360381019061012e91906111d9565b6105c1565b60405161014091906115d1565b60405180910390f35b610163600480360381019061015e91906111d9565b6109a3565b6040516101709190611745565b60405180910390f35b610193600480360381019061018e9190611767565b610ca7565b005b61019d611055565b6040516101aa91906117ba565b60405180910390f35b6101cd60048036038101906101c89190611322565b61105f565b005b6101e960048036038101906101e491906111d9565b6110d2565b6040516101f691906117d5565b60405180910390f35b6000818154811061020f57600080fd5b90600052602060002090600402016000915090508060000180546102329061181f565b80601f016020809104026020016040519081016040528092919081815260200182805461025e9061181f565b80156102ab5780601f10610280576101008083540402835291602001916102ab565b820191906000526020600020905b81548152906001019060200180831161028e57829003601f168201915b5050505050908060010180546102c09061181f565b80601f01602080910402602001604051908101604052809291908181526020018280546102ec9061181f565b80156103395780601f1061030e57610100808354040283529160200191610339565b820191906000526020600020905b81548152906001019060200180831161031c57829003601f168201915b5050505050908060020154908060030160009054906101000a900460ff16908060030160019054906101000a900460ff16905085565b600460009054906101000a900473ffffffffffffffffffffffffffffffffffffffff1673ffffffffffffffffffffffffffffffffffffffff163373ffffffffffffffffffffffffffffffffffffffff16146103c957600080fd5b80600554106103d757600080fd5b80600654116103e557600080fd5b816006819055505050565b60006103fa61112d565b600060016000858152602001908152602001600020600301541415915081156105bc5760026000600160008681526020019081526020016000206003015481526020019081526020016000206040518060a00160405290816000820180546104619061181f565b80601f016020809104026020016040519081016040528092919081815260200182805461048d9061181f565b80156104da5780601f106104af576101008083540402835291602001916104da565b820191906000526020600020905b8154815290600101906020018083116104bd57829003601f168201915b505050505081526020016001820180546104f39061181f565b80601f016020809104026020016040519081016040528092919081815260200182805461051f9061181f565b801561056c5780601f106105415761010080835404028352916020019161056c565b820191906000526020600020905b81548152906001019060200180831161054f57829003601f168201915b50505050508152602001600282015481526020016003820160009054906101000a900460ff1660ff1660ff1681526020016003820160019054906101000a900460ff1660ff1660ff168152505090505b915091565b606060006001600084815260200190815260200160002090506000805b6000805490508110156106b257600081815481106105ff576105fe611850565b5b906000526020600020906004020160030160009054906101000a900460ff1660ff168360020160019054906101000a900460ff1660ff1614801561068b57506000818154811061065257610651611850565b5b906000526020600020906004020160030160019054906101000a900460ff1660ff168360020160029054906101000a900460ff1660ff16145b1561069f57818061069b906118ae565b9250505b80806106aa906118ae565b9150506105de565b5060008167ffffffffffffffff8111156106cf576106ce6118f6565b5b60405190808252806020026020018201604052801561070857816020015b6106f561112d565b8152602001906001900390816106ed5790505b5090506000805b60008054905081101561099657600081815481106107305761072f611850565b5b906000526020600020906004020160030160009054906101000a900460ff1660ff168560020160019054906101000a900460ff1660ff161480156107bc57506000818154811061078357610782611850565b5b906000526020600020906004020160030160019054906101000a900460ff1660ff168560020160029054906101000a900460ff1660ff16145b1561098357600081815481106107d5576107d4611850565b5b90600052602060002090600402016040518060a00160405290816000820180546107fe9061181f565b80601f016020809104026020016040519081016040528092919081815260200182805461082a9061181f565b80156108775780601f1061084c57610100808354040283529160200191610877565b820191906000526020600020905b81548152906001019060200180831161085a57829003601f168201915b505050505081526020016001820180546108909061181f565b80601f01602080910402602001604051908101604052809291908181526020018280546108bc9061181f565b80156109095780601f106108de57610100808354040283529160200191610909565b820191906000526020600020905b8154815290600101906020018083116108ec57829003601f168201915b50505050508152602001600282015481526020016003820160009054906101000a900460ff1660ff1660ff1681526020016003820160019054906101000a900460ff1660ff1660ff168152505083838151811061096957610968611850565b5b6020026020010181905250818061097f906118ae565b9250505b808061098e906118ae565b91505061070f565b5081945050505050919050565b606081600654106109b357600080fd5b6000808054905067ffffffffffffffff8111156109d3576109d26118f6565b5b604051908082528060200260200182016040528015610a0c57816020015b6109f9611162565b8152602001906001900390816109f15790505b50905060005b600080549050811015610c9d576040518060c0016040528060008381548110610a3e57610a3d611850565b5b90600052602060002090600402016000018054610a5a9061181f565b80601f0160208091040260200160405190810160405280929190818152602001828054610a869061181f565b8015610ad35780601f10610aa857610100808354040283529160200191610ad3565b820191906000526020600020905b815481529060010190602001808311610ab657829003601f168201915b5050505050815260200160008381548110610af157610af0611850565b5b90600052602060002090600402016001018054610b0d9061181f565b80601f0160208091040260200160405190810160405280929190818152602001828054610b399061181f565b8015610b865780601f10610b5b57610100808354040283529160200191610b86565b820191906000526020600020905b815481529060010190602001808311610b6957829003601f168201915b5050505050815260200160036000808581548110610ba757610ba6611850565b5b906000526020600020906004020160020154815260200190815260200160002054815260200160008381548110610be157610be0611850565b5b906000526020600020906004020160020154815260200160008381548110610c0c57610c0b611850565b5b906000526020600020906004020160030160009054906101000a900460ff1660ff16815260200160008381548110610c4757610c46611850565b5b906000526020600020906004020160030160019054906101000a900460ff1660ff16815250828281518110610c7f57610c7e611850565b5b60200260200101819052508080610c95906118ae565b915050610a12565b5080915050919050565b80600554811015610cb757600080fd5b600654811115610cc657600080fd5b82846000600160008481526020019081526020016000206040518060e001604052908160008201548152602001600182018054610d029061181f565b80601f0160208091040260200160405190810160405280929190818152602001828054610d2e9061181f565b8015610d7b5780601f10610d5057610100808354040283529160200191610d7b565b820191906000526020600020905b815481529060010190602001808311610d5e57829003601f168201915b505050505081526020016002820160009054906101000a900460ff1660ff1660ff1681526020016002820160019054906101000a900460ff1660ff1660ff1681526020016002820160029054906101000a900460ff1660ff1660ff1681526020016002820160039054906101000a900460ff1615151515815260200160038201548152505090506000600260008481526020019081526020016000206040518060a0016040529081600082018054610e329061181f565b80601f0160208091040260200160405190810160405280929190818152602001828054610e5e9061181f565b8015610eab5780601f10610e8057610100808354040283529160200191610eab565b820191906000526020600020905b815481529060010190602001808311610e8e57829003601f168201915b50505050508152602001600182018054610ec49061181f565b80601f0160208091040260200160405190810160405280929190818152602001828054610ef09061181f565b8015610f3d5780601f10610f1257610100808354040283529160200191610f3d565b820191906000526020600020905b815481529060010190602001808311610f2057829003601f168201915b50505050508152602001600282015481526020016003820160009054906101000a900460ff1660ff1660ff1681526020016003820160019054906101000a900460ff1660ff1660ff168152505090506012826040015160ff161015610fa157600080fd5b8160a00151610faf57600080fd5b60008260c0015114610fc057600080fd5b816060015160ff16816060015160ff16148015610fea5750816080015160ff16816080015160ff16145b610ff357600080fd5b8760016000898152602001908152602001600020600301819055506000600360008a81526020019081526020016000205490506001816110339190611925565b600360008b815260200190815260200160002081905550505050505050505050565b6000600654905090565b600460009054906101000a900473ffffffffffffffffffffffffffffffffffffffff1673ffffffffffffffffffffffffffffffffffffffff163373ffffffffffffffffffffffffffffffffffffffff16146110b957600080fd5b80600554116110c757600080fd5b816005819055505050565b60008060016000848152602001908152602001600020905060128160020160009054906101000a900460ff1660ff161015801561111d57508060020160039054906101000a900460ff165b1561112757600191505b50919050565b6040518060a00160405280606081526020016060815260200160008152602001600060ff168152602001600060ff1681525090565b6040518060c0016040528060608152602001606081526020016000815260200160008152602001600060ff168152602001600060ff1681525090565b600080fd5b6000819050919050565b6111b6816111a3565b81146111c157600080fd5b50565b6000813590506111d3816111ad565b92915050565b6000602082840312156111ef576111ee61119e565b5b60006111fd848285016111c4565b91505092915050565b600081519050919050565b600082825260208201905092915050565b60005b83811015611240578082015181840152602081019050611225565b60008484015250505050565b6000601f19601f8301169050919050565b600061126882611206565b6112728185611211565b9350611282818560208601611222565b61128b8161124c565b840191505092915050565b61129f816111a3565b82525050565b600060ff82169050919050565b6112bb816112a5565b82525050565b600060a08201905081810360008301526112db818861125d565b905081810360208301526112ef818761125d565b90506112fe6040830186611296565b61130b60608301856112b2565b61131860808301846112b2565b9695505050505050565b600080604083850312156113395761133861119e565b5b6000611347858286016111c4565b9250506020611358858286016111c4565b9150509250929050565b60008115159050919050565b61137781611362565b82525050565b600082825260208201905092915050565b600061139982611206565b6113a3818561137d565b93506113b3818560208601611222565b6113bc8161124c565b840191505092915050565b6113d0816111a3565b82525050565b6113df816112a5565b82525050565b600060a0830160008301518482036000860152611402828261138e565b9150506020830151848203602086015261141c828261138e565b915050604083015161143160408601826113c7565b50606083015161144460608601826113d6565b50608083015161145760808601826113d6565b508091505092915050565b6000604082019050611477600083018561136e565b818103602083015261148981846113e5565b90509392505050565b600081519050919050565b600082825260208201905092915050565b6000819050602082019050919050565b600060a08301600083015184820360008601526114db828261138e565b915050602083015184820360208601526114f5828261138e565b915050604083015161150a60408601826113c7565b50606083015161151d60608601826113d6565b50608083015161153060808601826113d6565b508091505092915050565b600061154783836114be565b905092915050565b6000602082019050919050565b600061156782611492565b611571818561149d565b935083602082028501611583856114ae565b8060005b858110156115bf57848403895281516115a0858261153b565b94506115ab8361154f565b925060208a01995050600181019050611587565b50829750879550505050505092915050565b600060208201905081810360008301526115eb818461155c565b905092915050565b600081519050919050565b600082825260208201905092915050565b6000819050602082019050919050565b600060c083016000830151848203600086015261163c828261138e565b91505060208301518482036020860152611656828261138e565b915050604083015161166b60408601826113c7565b50606083015161167e60608601826113c7565b50608083015161169160808601826113d6565b5060a08301516116a460a08601826113d6565b508091505092915050565b60006116bb838361161f565b905092915050565b6000602082019050919050565b60006116db826115f3565b6116e581856115fe565b9350836020820285016116f78561160f565b8060005b85811015611733578484038952815161171485826116af565b945061171f836116c3565b925060208a019950506001810190506116fb565b50829750879550505050505092915050565b6000602082019050818103600083015261175f81846116d0565b905092915050565b6000806000606084860312156117805761177f61119e565b5b600061178e868287016111c4565b935050602061179f868287016111c4565b92505060406117b0868287016111c4565b9150509250925092565b60006020820190506117cf6000830184611296565b92915050565b60006020820190506117ea600083018461136e565b92915050565b7f4e487b7100000000000000000000000000000000000000000000000000000000600052602260045260246000fd5b6000600282049050600182168061183757607f821691505b60208210810361184a576118496117f0565b5b50919050565b7f4e487b7100000000000000000000000000000000000000000000000000000000600052603260045260246000fd5b7f4e487b7100000000000000000000000000000000000000000000000000000000600052601160045260246000fd5b60006118b9826111a3565b91507fffffffffffffffffffffffffffffffffffffffffffffffffffffffffffffffff82036118eb576118ea61187f565b5b600182019050919050565b7f4e487b7100000000000000000000000000000000000000000000000000000000600052604160045260246000fd5b6000611930826111a3565b915061193b836111a3565b92508282019050808211156119535761195261187f565b5b9291505056fea264697066735822122088191bcf197797d5bdf615db8f7b827e72d0e400adb7155f2c1c05e4e228536e64736f6c63430008110033",
  "immutableReferences": {},
  "source": "// SPDX-License-Identifier: GPL-3.0\r\npragma solidity >=0.4.25 <0.9.0;\r\n\r\nimport \"./Types.sol\";\r\n\r\ncontract Voting {\r\n    Types.Candidate[] public candidates;\r\n    mapping(uint256 => Types.Voter) voter;\r\n    mapping(uint256 => Types.Candidate) candidate;\r\n    mapping(uint256 => uint256) internal votesCount;\r\n\r\n    address electionChief;\r\n    uint256 private votingStartTime;\r\n    uint256 private votingEndTime;\r\n\r\n    constructor(uint256 startTime_, uint256 endTime_) {\r\n        initializeCandidateDatabase_();\r\n        initializeVoterDatabase_();\r\n        votingStartTime = startTime_;\r\n        votingEndTime = endTime_;\r\n        electionChief = msg.sender;\r\n    }\r\n\r\n    function getCandidateList(uint256 voterAadharNumber)\r\n        public\r\n        view\r\n        returns (Types.Candidate[] memory)\r\n    {\r\n        Types.Voter storage voter_ = voter[voterAadharNumber];\r\n        uint256 _politicianOfMyConstituencyLength = 0;\r\n\r\n        for (uint256 i = 0; i < candidates.length; i++) {\r\n            if (\r\n                voter_.stateCode == candidates[i].stateCode &&\r\n                voter_.constituencyCode == candidates[i].constituencyCode\r\n            ) _politicianOfMyConstituencyLength++;\r\n        }\r\n        Types.Candidate[] memory cc = new Types.Candidate[](\r\n            _politicianOfMyConstituencyLength\r\n        );\r\n\r\n        uint256 _indx = 0;\r\n        for (uint256 i = 0; i < candidates.length; i++) {\r\n            if (\r\n                voter_.stateCode == candidates[i].stateCode &&\r\n                voter_.constituencyCode == candidates[i].constituencyCode\r\n            ) {\r\n                cc[_indx] = candidates[i];\r\n                _indx++;\r\n            }\r\n        }\r\n        return cc;\r\n    }\r\n\r\n    function isVoterEligible(uint256 voterAadharNumber)\r\n        public\r\n        view\r\n        returns (bool voterEligible_)\r\n    {\r\n        Types.Voter storage voter_ = voter[voterAadharNumber];\r\n        if (voter_.age >= 18 && voter_.isAlive) voterEligible_ = true;\r\n    }\r\n\r\n    function didCurrentVoterVoted(uint256 voterAadharNumber)\r\n        public\r\n        view\r\n        returns (bool userVoted_, Types.Candidate memory candidate_)\r\n    {\r\n        userVoted_ = (voter[voterAadharNumber].votedTo != 0);\r\n        if (userVoted_)\r\n            candidate_ = candidate[voter[voterAadharNumber].votedTo];\r\n    }\r\n\r\n    function vote(\r\n        uint256 nominationNumber,\r\n        uint256 voterAadharNumber,\r\n        uint256 currentTime_\r\n    )\r\n        public\r\n        votingLinesAreOpen(currentTime_)\r\n        isEligibleVote(voterAadharNumber, nominationNumber)\r\n    {\r\n        // updating the current voter values\r\n        voter[voterAadharNumber].votedTo = nominationNumber;\r\n\r\n        // updates the votes the politician\r\n        uint256 voteCount_ = votesCount[nominationNumber];\r\n        votesCount[nominationNumber] = voteCount_ + 1;\r\n    }\r\n\r\n    function getVotingEndTime() public view returns (uint256 endTime_) {\r\n        endTime_ = votingEndTime;\r\n    }\r\n\r\n    function updateVotingStartTime(uint256 startTime_, uint256 currentTime_)\r\n        public\r\n        isElectionChief\r\n    {\r\n        require(votingStartTime > currentTime_);\r\n        votingStartTime = startTime_;\r\n    }\r\n\r\n    function extendVotingTime(uint256 endTime_, uint256 currentTime_)\r\n        public\r\n        isElectionChief\r\n    {\r\n        require(votingStartTime < currentTime_);\r\n        require(votingEndTime > currentTime_);\r\n        votingEndTime = endTime_;\r\n    }\r\n\r\n    function getResults(uint256 currentTime_)\r\n        public\r\n        view\r\n        returns (Types.Results[] memory)\r\n    {\r\n        require(votingEndTime < currentTime_);\r\n        Types.Results[] memory resultsList_ = new Types.Results[](\r\n            candidates.length\r\n        );\r\n        for (uint256 i = 0; i < candidates.length; i++) {\r\n            resultsList_[i] = Types.Results({\r\n                name: candidates[i].name,\r\n                partyShortcut: candidates[i].partyShortcut,\r\n                nominationNumber: candidates[i].nominationNumber,\r\n                stateCode: candidates[i].stateCode,\r\n                constituencyCode: candidates[i].constituencyCode,\r\n                voteCount: votesCount[candidates[i].nominationNumber]\r\n            });\r\n        }\r\n        return resultsList_;\r\n    }\r\n\r\n    modifier votingLinesAreOpen(uint256 currentTime_) {\r\n        require(currentTime_ >= votingStartTime);\r\n        require(currentTime_ <= votingEndTime);\r\n        _;\r\n    }\r\n\r\n    modifier isEligibleVote(uint256 voterAadhar_, uint256 nominationNumber_) {\r\n        Types.Voter memory voter_ = voter[voterAadhar_];\r\n        Types.Candidate memory politician_ = candidate[nominationNumber_];\r\n        require(voter_.age >= 18);\r\n        require(voter_.isAlive);\r\n        require(voter_.votedTo == 0);\r\n        require(\r\n            (politician_.stateCode == voter_.stateCode &&\r\n                politician_.constituencyCode == voter_.constituencyCode)\r\n        );\r\n        _;\r\n    }\r\n\r\n    modifier isElectionChief() {\r\n        require(msg.sender == electionChief);\r\n        _;\r\n    }\r\n\r\n    /**\r\n     * Dummy data for Candidates\r\n     * In the future, we can accept the same from construction,\r\n     * which will be called at the time of deployment\r\n     */\r\n    function initializeCandidateDatabase_() internal {\r\n        Types.Candidate[] memory candidates_ = new Types.Candidate[](3);\r\n\r\n        // Andhra Pradesh\r\n        candidates_[0] = Types.Candidate({\r\n            name: \"The Bharatiya Janata Party\",\r\n            partyShortcut: \"BJP\",\r\n            nominationNumber: uint256(727477314982),\r\n            stateCode: uint8(10),\r\n            constituencyCode: uint8(1)\r\n        });\r\n        candidates_[1] = Types.Candidate({\r\n            name: \"Congress\",\r\n            partyShortcut: \"Cong\",\r\n            nominationNumber: uint256(835343722350),\r\n            stateCode: uint8(10),\r\n            constituencyCode: uint8(1)\r\n        });\r\n        candidates_[2] = Types.Candidate({\r\n            name: \"The Aam Aadmi Party\",\r\n            partyShortcut: \"AAP\",\r\n            nominationNumber: uint256(969039304119),\r\n            stateCode: uint8(10),\r\n            constituencyCode: uint8(2)\r\n        });\r\n\r\n        for (uint256 i = 0; i < candidates_.length; i++) {\r\n            candidate[candidates_[i].nominationNumber] = candidates_[i];\r\n            candidates.push(candidates_[i]);\r\n        }\r\n    }\r\n\r\n    /**\r\n     * Dummy data for Aadhar users\r\n     * In the future, we can have a an external API cal to centralized aadhar DB\r\n     * https://ethereum.stackexchange.com/a/334\r\n     * https://docs.chain.link/docs/make-a-http-get-request/\r\n     */\r\n    function initializeVoterDatabase_() internal {\r\n        // Andhra Pradesh\r\n        voter[uint256(477304606429)] = Types.Voter({\r\n            name: \"Arnav Jain\",\r\n            aadharNumber: uint256(477304606429),\r\n            age: uint8(21),\r\n            stateCode: uint8(10),\r\n            constituencyCode: uint8(1),\r\n            isAlive: true,\r\n            votedTo: uint256(0)\r\n        });\r\n        voter[uint256(765215083518)] = Types.Voter({\r\n            name: \"Luvjeet Singh\",\r\n            aadharNumber: uint256(765215083518),\r\n            age: uint8(37),\r\n            stateCode: uint8(10),\r\n            constituencyCode: uint8(1),\r\n            isAlive: false,\r\n            votedTo: uint256(0)\r\n        });\r\n        voter[uint256(912656599366)] = Types.Voter({\r\n            name: \"Probal Malik\",\r\n            aadharNumber: uint256(912656599366),\r\n            age: uint8(26),\r\n            stateCode: uint8(10),\r\n            constituencyCode: uint8(1),\r\n            isAlive: true,\r\n            votedTo: uint256(0)\r\n        });\r\n    }\r\n}\r\n",
  "sourcePath": "E:\\MinorProject\\E-BlockChain\\truffle\\contracts\\Voting.sol",
  "compiler": {
    "name": "solc",
    "version": "0.8.17+commit.8df45f5f.Emscripten.clang"
  },
  "schemaVersion": "3.4.10",
  "updatedAt": "2023-01-24T06:01:43.353Z",
  "networkType": "ethereum",
  "devdoc": {
    "kind": "dev",
    "methods": {},
    "version": 1
  },
  "userdoc": {
    "kind": "user",
    "methods": {},
    "version": 1
  }
}